:020000002D28A9
:10000800FF00030E8301A4000A08A5008A010B1D46
:100018001328A20A0319A30A0B11603081002508CE
:0C0028008A00240E8300FF0E7F0E0900EA
:0E0034008312031321088A00200882000800AE
:100042001A208A110A128000840AA00A0319A10A3E
:08005200F003031D2128080042
:10005A0084308316031381000317880189018312F0
:10006A0087138813831603138601FF3083128600D1
:10007A0060308100A0308B00A201A301013023026D
:10008A00031D492890302202031C4E288609A2012A
:06009A00A30143284F28DA
:04400E00F22F000786
:00000001FF
