:020000000329D2
:10000600293083120313FD00FD0B072800000800AA
:10001600123083120313FC00DA30FD00FD0B1128A9
:08002600FC0B1128000008008A
:06002E00000000000800C4
:1000340083120313B41B2028871321288717341B2A
:100044002528071326280717B41A2A2887122B28CD
:100054008716341A2F280712302807162E1834282A
:10006400071535280711871517208711B4193C285F
:1000740087133D2887173419412807134228071787
:10008400B418462887124728871634184B280712B5
:100094004C2807162E1850280715512807118715C4
:1000A400172087112E1C58280B20592803200800DC
:0E00B400831203132D088A002C088200080016
:1000C200831203132E103308B4001A202E140800D2
:1000D2008316031387110711071287120713871359
:1000E20083128711071187130713871207120B2038
:1000F2000B200B20871607168715172087110B2058
:100102008715172087110B208715172087110B20C1
:1001120007128715172087110B20871517208711C3
:10012200871287178715172087110B208713071649
:1001320087151720871107128715172087110B20A3
:1001420087151720871107168715172087110B208F
:1001520007128715172087118717071787160716A3
:0C0162008715172087110B202E140800B1
:10016E00C928803083120313AF00DC28C030AF00E3
:10017E00DC289430AF00DC28D430AF00DC2880308F
:10018E00AF00DC28831203132F08013A0319B82895
:10019E002F08023A0319BD282F08033A0319C02865
:1001AE002F08043A0319C328C6283003F0002F087D
:1001BE00F0077008AF007008B4001A202E10B201BC
:1001CE0032083107840000080319F5283208310778
:1001DE0084000008B3006120B20AE7282E1408003C
:1001EE005A208A110A128000840AAC0A0319AD0A39
:0801FE00F003031DF7280800BF
:10020600483083120313A0006530A1006C30A200B1
:100216006C30A3006F30A4002030A5005730A60034
:100226006F30A7007230A8006C30A9006430AA00B5
:10023600AB0169200130B4001A200C30B4001A203A
:100246000130AF000130B0002030B100B7202A29BC
:02400E004A2F37
:00000001FF
